:1000000000800020BD010000853F0000493F000046
:10001000493F0000493F0000493F0000493F0000C0
:10002000493F0000493F0000493F0000853F000074
:10003000853F0000493F0000853F0000393F000038
:10004000853F0000853F0000853F0000853F0000A0
:10005000853F0000853F0000853F0000853F000090
:10006000853F0000853F0000853F0000853F000080
:10007000853F0000853F0000853F0000853F000070
:10008000853F0000853F0000853F0000853F000060
:10009000853F0000853F0000853F0000853F000050
:1000A000853F0000853F0000853F0000853F000040
:1000B000853F0000853F0000853F0000853F000030
:1000C000853F0000853F0000853F0000853F000020
:1000D000853F0000853F0000853F0000853F000010
:1000E000853F0000853F0000853F0000853F000000
:1000F000853F000039460000853F00009D4D00000F
:10010000853F000019530000853F0000853F000037
:10011000853F0000853F0000853F0000853F0000CF
:10012000853F0000853F0000853F0000853F0000BF
:10013000853F0000853F0000853F0000853F0000AF
:10014000853F0000853F0000853F0000853F00009F
:10015000853F0000853F0000853F0000853F00008F
:10016000853F00005D320000853F0000853F0000B4
:10017000853F0000853F0000853F0000853F00006F
:10018000853F0000853F0000853F0000853F00005F
:10019000853F0000853F0000853F0000853F00004F
:1001A000853F0000853F0000853F0000853F00003F
:1001B000853F0000853F0000853F0000574B4CF213
:1001C000205210B51A804DF628121A8000BF00BFC9
:1001D00003F0DCFE524B4FF010621A60514A9A60F5
:1001E000514ADA60A3F53043203B1A6812F480725A
:1001F00004D14E490A604FF4A8521A604C4B1A7849
:10020000110703D51A7842F008021A70494B4A4C7C
:100210004A482A221A704A4A00239918A14203D256
:10022000195899500433F8E7464B474900228B424E
:1002300002D243F8042BFAE74448454900235A58B0
:100240001A500433B3F5DE7FF9D1424B424A802184
:1002500003F8011B9342FBD1404B3C4A1A60404BD0
:100260008A221A70A3F5805324225A70A0221A7091
:100270009A799207FCD59A79D406FCD4394A9379B5
:1002800003F00C03082B374BF9D103221A714022DB
:100290005A719A799006FCD5324A9179314B4906C8
:1002A000FBD5314A314911600221516020221A7078
:1002B0009A7902F00C020C2AFAD12D4B2D4A1A60C1
:1002C0002D4B2E4A1A6000225A60072243F8042C54
:1002D0002B4AC3F80C2D62B602F080FE134B1B684C
:1002E000DA0705D5274802F0CDFD274B274A1A60CB
:1002F000274B1B785B0609D5234C244A236893427D
:1003000004D1204802F0BEFD0023236005F0A2FACC
:1003100003F042FE03F02CFDFEE700BF0E20054077
:1003200030800440823F04000100002B14D00340C1
:1003300002D0074000E007405C90FF1F386A0000D1
:100340006087FF1F5C90FF1FD896FF1F0082FF1F72
:100350000000000000E400E05FE400E008ED00E0E1
:100360000050064000400640448004400000030165
:1003700004800440C010050014E000E0FF76010096
:10038000000020200F665D591CE00340A5C3945A6D
:1003900000F00740FFFFFFFFFFFFFFFFFFFFFFFF32
:1003A000FFFFFFFFFFFFFFFFFFFFFFFFFFFFFFFF5D
:1003B000FFFFFFFFFFFFFFFFFFFFFFFFFFFFFFFF4D
:1003C000FFFFFFFFFFFFFFFFFFFFFFFFFFFFFFFF3D
:1003D000FFFFFFFFFFFFFFFFFFFFFFFFFFFFFFFF2D
:1003E000FFFFFFFFFFFFFFFFFFFFFFFFFFFFFFFF1D
:1003F000FFFFFFFFFFFFFFFFFFFFFFFFFFFFFFFF0D
:10040000FFFFFFFFFFFFFFFFFFFFFFFFDEF9FFFF23
:1004100010B5054C237833B9044B13B10448AFF33E
:1004200000800123237010BD5C90FF1F00000000BE
:10043000386A000008B5064B1BB106480649AFF301
:1004400000800648036813B1054B03B1984708BD07
:1004500000000000386A00006090FF1F5C90FF1FE2
:100460000000000030B583B0134B1B78002B0CBF8D
:100470004FF478444FF4FC64104B1B68012B15D1EA
:100480000F4D0094284664210A46082301F0FAFC27
:100490000094284664210A460C2301F091FB009445
:1004A000284664210A460D2301F08AFB05480321F2
:1004B00000F0E0F903B030BD7890FF1F6087FF1FA8
:1004C0007C90FF1FA090FF1F10B50220014602F094
:1004D0000DFD0320022102F009FD0420022102F09B
:1004E00005FD0620012102F001FD204A204B1A6083
:1004F00000F078F968B11F4B1B7853B11C4B1C6896
:1005000023685B6820461C4911229847204603F067
:100510001FFC1A4C204601F003F92046032100F08D
:10052000D1FF2046002100F0BDFF20460E2102F041
:100530000BFB20464FF6FF7102F00CFB23685B6853
:1005400020460F4902229847204603F001FC0D4C3B
:10055000204603210C4A00F069F92046032100F0EF
:1005600081F90122094B1A7010BD00BFB894FF1F1A
:10057000DC90FF1F6487FF1FA86100007C90FF1FB5
:10058000BC610000A090FF1F650400007890FF1F71
:1005900038B500240F4D2846214600F05BF918B10C
:1005A0002846214600F050F901340B2CF3D14FF4CA
:1005B000FA6002F0FDFC084B1B781BB10022064BD1
:1005C0001A7002E00122044B1A700248032100F065
:1005D00049F938BDA090FF1F7890FF1F00B585B086
:1005E0000B4800F069F80B4800F044F80B23009327
:1005F0000D2301930C23029307480A2109220823A3
:1006000000F066F9054800F001F905B05DF804FB5B
:10061000D890FF1FE090FF1F7C90FF1FA090FF1F4E
:1006200064230360704700BF08B5084602F0BCFBB6
:1006300008BD00BF08B5FFF7F7FF08BD08B50846BD
:1006400002F0C8FB08BD00BF08B50846114602F01D
:10065000F7FB012008BD00BF08B5FFF7F5FF08BD97
:100660000120704708B50248FFF7DAFF08BD00BF58
:100670002C93FF1F30B482B00E4B1B680193019D79
:100680000123C0F84432034600210A46441884F886
:1006900090211A651D60C3F84021C3F8F42101318F
:1006A00004331429F2D10023C0F8483202B030BC20
:1006B000704700BFC093FF1F704700BF08B50348D5
:1006C0000021742202F09CFB08BD00BF3093FF1F85
:1006D00070B430494B1E0731002203F8012F1A7203
:1006E0001A748B42F9D12B4B03221A76C8265E83EB
:1006F00001215984998411241C840C2098830022A0
:100700009A77DA774FF6CE75DD84D98519869C8580
:10071000188583F82A2083F82B205E8659879987CD
:100720001C87988683F8362083F83720DD87A3F866
:100730004610A3F84810A3F84440A3F8400083F8FB
:10074000422083F84320A3F84A60A3F85210A3F88C
:100750005410A3F85040A3F84C0083F84E2083F8BF
:100760004F20A3F85650A3F85E10A3F86010A3F82A
:100770005C40A3F8580083F85A2083F85B20064AAF
:100780005A66064A9A6640F29912A3F86C2070BC29
:10079000704700BF3093FF1FF2D21642B9EDC2C2BC
:1007A00070B5FFF795FF4AF6CD320C4B1A670C482F
:1007B0007421FFF755FF80B10024094D074E2846EC
:1007C0002146FFF737FFA25D904203D0284621461D
:1007D000FFF742FF0134742CF1D170BD3093FF1F3D
:1007E0002C93FF1F08B508487021FFF727FF4AF632
:1007F000CD33984203D0FFF7D3FF012008BDFFF7A8
:100800005DFF002008BD00BF2C93FF1F10B4011F27
:1008100000231A46C41884F82C2041F8042F013311
:100820000B2BF7D15DF8044B704700BF0A2907DC9A
:1008300040F821200844002380F82C3008467047F7
:100840004FF0FF30704700BF08B550F8213003B1BA
:10085000984708BD0A29DABF091891F82C00002032
:10086000704700BF0A2903DC0144012381F82C30C2
:10087000704700BF0A2903DC0144002381F82C30B3
:10088000704700BFF0B4074600204FF0010CCB08C2
:10089000FC5C01F00703C3F108039A420BD300FA92
:1008A00003F50CFA03F6013E344044EA050019440E
:1008B000D21AECD10AE090409B1A44FA03F30121CA
:1008C00001FA02F2013A1340DBB21843F0BC704760
:1008D00070B400250571114E066041778277037769
:1008E0009DF80C3080F822309DF8103080F82330CD
:1008F0009DF8143080F82130F023C3804FF4A073AA
:100900000381C57445818581012383744FF6FF728D
:100910000282C2810375856170BC70473067000038
:1009200070B40029C0F20881B0F906408C4240F34F
:100930000381002AC0F20081B0F90840944240F3DC
:10094000FB807E4C2478002C28D072B67B4C247817
:1009500014F0010F07D07A4C26687A4D2D68354087
:10096000794E35602560754C247814F0020F07D05D
:10097000764C2668734D6D683540734E7560256002
:100980006E4C247814F0040F07D0714C26686D4D1E
:10099000AD6835406C4EB560256062B66D4CE4685C
:1009A000B4F1384F0AD06B4C6B4D25604FF0384591
:1009B000E5604FF078452561684D25608EB292B2B2
:1009C00090F82010090441F0004141F02A01614CE7
:1009D0006163E16A11F0F00F18BFA56B01F470417B
:1009E000B1F5405FF5D8C47F46EA044444F01044B2
:1009F00058494C630C46E16A11F0F00F18BFA56B23
:100A000001F47041B1F5405FF5D8C17F46EA014677
:100A100046F010464F494E630C46E16A11F0F00F64
:100A200018BFA56B01F47041B1F5405FF5D890F89F
:100A30002010090441F0004141F02B01454C616355
:100A4000E16A11F0F00F18BFA56B01F47041B1F528
:100A5000405FF5D8C47F42EA044444F010443D4965
:100A60004C630C46E16A11F0F00F18BFA56B01F45E
:100A70007041B1F5405FF5D8C17F42EA014242F0D2
:100A8000104234494A63CA6A12F0F00F18BF8C6BE7
:100A900002F47042B2F5405FF5D890F820201204BD
:100AA00042F0004242F02C022A494A63CA6A12F01C
:100AB000F00F18BF8C6B02F47042B2F5405FF5D8AE
:100AC000244A1168C07F43EA004343F0C053536394
:100AD000D36A13F0805F04D113F0F00FF8D0936B5A
:100AE000F6E71C4B4FF08052DA621960DB6A13F0B4
:100AF000F00F05D0174B9A6BDA6A12F0F00FFAD1AB
:100B00000E4B1B78C3B113F0010F03D00E4B1A68C4
:100B1000134B1A60094B1B7813F0020F03D00A4BDA
:100B20005A68104B1A60054B1B7813F0040F03D062
:100B3000054B9A680C4B1A6070BC7047BC93FF1F42
:100B400080E100E0A493FF1FB093FF1F84E100E069
:100B500088E100E000C0024001401F0000001F804B
:100B600000E100E004E100E008E100E0F0B4BDF8DD
:100B70001040B0F906608E4240F32F810029C0F288
:100B80002C81068935B2954240F32781002A02DA8A
:100B900013441BB20022D718013F35B2AF42A4BFA5
:100BA000C2EB06031BB28E4D2D78002D28D072B6F5
:100BB0008B4D2D7815F0010F07D08A4D2F688A4E86
:100BC00036683E40894F3E602E60854D2D7815F089
:100BD000020F07D0864D2F68834E76683E40834FC4
:100BE0007E602E607E4D2D7815F0040F07D0814D6C
:100BF0002F687D4EB6683E407C4FBE602E6062B668
:100C00007D4DED68B5F1384F0AD07B4D7B4E2E609F
:100C10004FF03846EE604FF078462E61784E2E60E9
:100C20008FB291B29DB24A1E2A4492B290F82030FF
:100C30001B0443F0004343F02A036F4E7363F36ACF
:100C400013F0F00F18BFD6F838C003F47043B3F5B3
:100C5000405FF4D8C67F47EA064646F01046664B2A
:100C60005E631E46F36A13F0F00F18BFD6F838C063
:100C700003F47043B3F5405FF4D8C67F47EA0646F5
:100C800046F010465C4B5E631E46F36A13F0F00FAD
:100C900018BFB76B03F47043B3F5405FF5D890F815
:100CA00020301B0443F0004343F02B03524E736388
:100CB000F36A13F0F00F18BFB76B03F47043B3F58A
:100CC000405FF5D8C37F41EA034141F010414A4BF0
:100CD00059631946CB6A13F0F00F18BF8E6B03F4FB
:100CE0007043B3F5405FF5D8C37F42EA034242F058
:100CF0001042414B5A631A46D36A13F0F00F18BFE3
:100D0000916B03F47043B3F5405FF5D890F8203051
:100D10001B0443F0004343F02C03374A5363D36A68
:100D200013F0F00F18BF916B03F47043B3F5405FFD
:100D3000F5D8314A11E0C37F44EA034343F010433E
:100D40005363D36A13F0F00F18BF916B03F4704331
:100D5000B3F5405FF5D8013DADB22BB2012BEADC13
:100D6000254B1968C27F44EA024242F0C0525A63DE
:100D70001A46D36A13F0805F04D113F0F00FF8D055
:100D8000936BF6E71C4B4FF08052DA621960DB6A16
:100D900013F0F00F05D0184B9A6BDA6A12F0F00FCF
:100DA000FAD10F4B1B78C3B113F0010F03D00F4BD7
:100DB0001A68144B1A600A4B1B7813F0020F03D009
:100DC0000A4B5A68104B1A60054B1B7813F0040F3E
:100DD00003D0064B9A680D4B1A60F0BC704700BFF9
:100DE000BC93FF1F80E100E0A493FF1FB093FF1F9F
:100DF00084E100E088E100E000C0024001401F0003
:100E000000001F8000E100E004E100E008E100E0F4
:100E1000F0B4BDF81040C68837B28F4240F32F813E
:100E2000B0F90850954240F32A81002AC0F2278188
:100E3000002902DA0B441BB20021CF18013F35B262
:100E4000AF42A4BFC1EB06031BB28E4D2D78002D1F
:100E500028D072B68B4D2D7815F0010F07D08A4D32
:100E60002F688A4E36683E40894F3E602E60854D21
:100E70002D7815F0020F07D0864D2F68834E7668C7
:100E80003E40834F7E602E607E4D2D7815F0040F1E
:100E900007D0814D2F687D4EB6683E407C4FBE60C6
:100EA0002E6062B67D4DED68B5F1384F0AD07B4DAE
:100EB0007B4E2E604FF03846EE604FF078462E6144
:100EC000784E2E601FFA81FC9DB20CF1FF372F4443
:100ED000BFB292B290F820301B0443F0004343F0BD
:100EE0002A036E494B63CB6A13F0F00F18BF8E6B69
:100EF00003F47043B3F5405FF5D8C17F4CEA01417C
:100F000041F01041654B59631946CB6A13F0F00F5D
:100F100018BF8E6B03F47043B3F5405FF5D8C17F03
:100F200047EA014141F010415C4B59631946CB6AD5
:100F300013F0F00F18BF8E6B03F47043B3F5405FEE
:100F4000F5D890F820301B0443F0004343F02B0306
:100F500052494B63CB6A13F0F00F18BF8E6B03F44A
:100F60007043B3F5405FF5D8C17F42EA014141F0DB
:100F700010414A4B59631946CB6A13F0F00F18BF62
:100F80008E6B03F47043B3F5405FF5D8C37F42EA3C
:100F9000034242F01042414B5A631A46D36A13F09F
:100FA000F00F18BF916B03F47043B3F5405FF5D8B1
:100FB00090F820301B0443F0004343F02C03374AE1
:100FC0005363D36A13F0F00F18BF916B03F47043AF
:100FD000B3F5405FF5D8314A11E0C37F44EA0343DB
:100FE00043F010435363D36A13F0F00F18BF916BB3
:100FF00003F47043B3F5405FF5D8013DADB22BB2B9
:10100000012BEADC254B1968C27F44EA024242F018
:10101000C0525A631A46D36A13F0805F04D113F0AA
:10102000F00FF8D0936BF6E71C4B4FF08052DA626A
:101030001960DB6A13F0F00F05D0184B9A6BDA6A6F
:1010400012F0F00FFAD10F4B1B78C3B113F0010F60
:1010500003D00F4B1A68144B1A600A4B1B7813F01D
:10106000020F03D00A4B5A68104B1A60054B1B78CD
:1010700013F0040F03D0064B9A680D4B1A60F0BCB6
:10108000704700BFBC93FF1F80E100E0A493FF1FE7
:10109000B093FF1F84E100E088E100E000C002405F
:1010A00001401F0000001F8000E100E004E100E0BB
:1010B00008E100E02DE9F00FBDF92070BDF82460D3
:1010C000C48825B28D4240F3D98105890FFA85FC89
:1010D000944540F3D381002902DA0B441BB200216E
:1010E000002A02DA17443FB2002201EB030808F19C
:1010F000FF380FFA84FCE045A4BFC1EB04031BB228
:1011000002EB070C0CF1FF3C2CB2A445A4BFC2EBD0
:1011100005052FB2874C2478002C34D072B6854C4C
:10112000247814F0010F0BD0834CD4F800C0834D09
:101130002D680CEA0505DFF81CC2CCF800502560CC
:101140007C4C247814F0020F0BD07D4CD4F800C0F6
:101150007A4D6D680CEA0505DFF8F8C1CCF804504B
:101160002560744C247814F0040F0BD0754CD4F81F
:1011700000C0724DAD680CEA0505DFF8D8C1CCF8A7
:101180000850256062B6704CE468B4F1384F0AD05C
:101190006D4C6E4D25604FF03845E5604FF0784559
:1011A00025616B4D25601FFA81F808F1FF3C9C44D6
:1011B0001FFA8CFC94B2611E394489B290F8202049
:1011C000120442F0004242F02A025F4D6A639946DF
:1011D000EA6A12F0F00F18BFAB6B02F47042B2F57E
:1011E000405FF5D84B46C57F48EA054545F01045B8
:1011F000554A55631546C846EA6A12F0F00F18BF03
:10120000AB6B02F47042B2F5405FF5D84346C57F40
:101210004CEA054545F010454B4A55631546C44612
:10122000EA6A12F0F00F18BFAB6B02F47042B2F52D
:10123000405FF5D8634690F82020120442F0004247
:1012400042F02B02404D6A63EA6A12F0F00F18BFB9
:10125000AB6B02F47042B2F5405FF5D86346C27FD3
:1012600044EA024444F01044374A54631446E26AA4
:1012700012F0F00F18BFA56B02F47042B2F5405F98
:10128000F5D8C27F41EA024141F010412E4A516334
:101290001146CA6A12F0F00F18BF8C6B02F470424C
:1012A000B2F5405FF5D890F82020120442F00042D9
:1012B00042F02C0224494A63CA6A12F0F00F18BFA8
:1012C0008C6B02F47042B2F5405FF5D8002F40F30A
:1012D000B9801D49DFF85CC0DFF868A0DFF86090D6
:1012E000DFF85480DFF870B0A7E0C27F46EA024220
:1012F00042F010424A63CA6A12F0F00F18BF8D6BB9
:1013000002F47042B2F5405FF5D8013C24B2012CE2
:10131000EBD10C68C27F46EA024242F0C0524A63F7
:10132000CA6A12F0805F19D112F0F00FF8D08A6B00
:10133000F6E700BFBC93FF1F80E100E0A493FF1F0E
:1013400084E100E088E100E000C0024001401F00AD
:1013500000001F80B093FF1F08E100E04FF08052B3
:10136000CA620C60CA6A12F0F00F04D08A6BCA6AB3
:1013700012F0F00FFAD1012F5CDD17F0010F59D0F8
:101380009CF80020002A47D012F0010F03D03D4AFC
:1013900014683D4A14609CF8002012F0020F03D03C
:1013A000384A5268394C22609CF8002012F0040F31
:1013B00003D0344A9268CBF800209CF800205AB33E
:1013C00072B69CF8002012F0010F08D0D8F8004047
:1013D0002F4A126822402B4C2260C8F800209CF84B
:1013E000002012F0020F08D0D9F80040284A5268B5
:1013F0002240244C6260C9F800209CF8002012F0C2
:10140000040F08D0DAF80040214A926822401D4CAF
:10141000A260CAF8002062B6CA68B2F1384F09D09B
:101420001C4A0A604FF03842CA604FF078420A61A5
:10143000194A0A60013F3FB227B1012B7FF769AF1C
:101440001C4652E7154B1B78C3B113F0010F03D0B4
:101450000C4B1A680C4B1A60104B1B7813F0020FE0
:1014600003D0084B5A68094B1A600C4B1B7813F0D9
:10147000040F03D0034B9A68094B1A60BDE8F00FC4
:10148000704700BFB093FF1F00E100E004E100E0FF
:10149000A493FF1F01401F0000001F80BC93FF1F8B
:1014A00008E100E000B583B0B0F90630B0F90820DB
:1014B0000092019100210A46FFF7FCFD03B05DF8A0
:1014C00004FB00BF01F00301C174894B1B78002BA2
:1014D00028D072B6864B1B7813F0010F07D0854BCE
:1014E0001968854A12680A4084490A601A60804B6C
:1014F0001B7813F0020F07D0814B19687E4A52689F
:101500000A407E494A601A60794B1B7813F0040F39
:1015100007D07C4B1968784A92680A4077498A60FC
:101520001A6062B6784BDB68B3F1384F0AD0764B5D
:10153000764A1A604FF03842DA604FF078421A610A
:10154000734A1A6090F820301B0443F0004343F0C4
:1015500036036D4A5363D36A13F0F00F18BF916BD3
:1015600003F47043B3F5405FF5D8C37C032B00F25E
:101570009F80DFE803F002295077634A1168C37F38
:101580001B0443F0006343F048035363D36A13F032
:10159000805F04D113F0F00FF8D0936BF6E75A4B4D
:1015A0004FF08052DA621960DB6A13F0F00F05D059
:1015B000554B9A6BDA6A12F0F00FFAD1F023C38020
:1015C0004FF4A073038173E04F4A1168C37F1B047B
:1015D00043F0006343F028035363D36A13F0805F42
:1015E00004D113F0F00FF8D0936BF6E7464B4FF0B1
:1015F0008052DA621960DB6A13F0F00F05D0424BBB
:101600009A6BDA6A12F0F00FFAD14FF4A073C3802C
:10161000F02303814CE03C4A1168C37F1B0443F074
:10162000006343F088035363D36A13F0805F04D1EF
:1016300013F0F00FF8D0936BF6E7334B4FF0805276
:10164000DA621960DB6A13F0F00F05D02E4B9A6B4B
:10165000DA6A12F0F00FFAD1F023C3804FF4A073CE
:10166000038125E0284A1168C37F1B0443F000630F
:1016700043F0E8035363D36A13F0805F04D113F09F
:10168000F00FF8D0936BF6E71F4B4FF08052DA6201
:101690001960DB6A13F0F00F05D01B4B9A6BDA6A06
:1016A00012F0F00FFAD14FF4A073C380F02303813E
:1016B0000F4B1B78C3B113F0010F03D00F4B1A6807
:1016C000144B1A600A4B1B7813F0020F03D00B4B1C
:1016D0005A68114B1A60064B1B7813F0040F03D0A5
:1016E000064B9A680D4B1A60002343818381704733
:1016F000BC93FF1F80E100E0A493FF1FB093FF1F86
:1017000084E100E088E100E000C0024001401F00E9
:1017100000001F8000E100E004E100E008E100E0DB
:1017200070B5054690F822300B2B02D0072B40F005
:101730002B8295F8212002F0FB02082A40F0248237
:1017400095F823200D3AD2B2012A00F21D82994A5F
:1017500011780B2B02D101F0FE0204E0072B40F0C0
:10176000078241F00102944B1B6813F4805F16D08E
:10177000914240F0EE8112E04FF4A2718F4B19605C
:101780004FF41071A3F57F63196008E04FF4A27164
:101790008B4B19604FF4007103F57F631960854B23
:1017A0001A7095F821300C2B02D102F0FD0304E0F1
:1017B000082B40F0E18142F002037F49096811F4EF
:1017C000805F16D09A4240F0C98112E04FF4A271B6
:1017D0007C4A11604FF40071A2F57F62116008E04D
:1017E0004FF4A271784A11604FF4007102F57F62E4
:1017F0001160704A137095F823200D2A02D103F06E
:10180000FB0205E00E2A40F0BB8143F00402D2B295
:101810006949096811F4805F16D0934240F0A381B2
:1018200012E04FF4A271694B19604FF41071A3F5E7
:101830007F63196008E04FF4A271654B19604FF4A3
:10184000007103F57F6319605A4B1A7001F086F935
:10185000687FA97F01F0ECF970B1687F01F0FEF9B3
:101860000446E877A87F01F0F9F9204385F82000C5
:10187000287FFF2805D11CE00023EB7785F8203076
:1018800070BD012101F032FB287F012101F00AFB2C
:10189000052001F08DFB287F002101F003FB1420BF
:1018A00001F086FB287F012101F0FCFA962001F06F
:1018B0007FFB484B1B78002B28D072B6454B1B781A
:1018C00013F0010F07D0444B1968444A12680A40CC
:1018D00043490A601A603F4B1B7813F0020F07D090
:1018E000404B19683D4A52680A403D494A601A60B7
:1018F000384B1B7813F0040F07D03B4B1968374A5D
:1019000092680A4036498A601A6062B6374BDB68D3
:10191000B3F1384F0AD0354B354A1A604FF0384290
:10192000DA604FF078421A61324A1A6032482F4A20
:101930000378591ECEB24BB3841C437895F820101F
:1019400043EA014343F000435363D36A13F0F00FBB
:1019500018BF916B03F47043B3F5405FF5D8A0193D
:1019600011E014F8013BE97F43EA014343F00043EF
:101970005363D36A13F0F00F18BF916B03F47043F5
:10198000B3F5405FF5D88442EBD1D1E7174A11682F
:1019900095F820301B0443F0006343F011035363B8
:1019A000D36A13F0805F29D113F0F00FF8D0936B56
:1019B000F6E700BFB594FF1F3C80044008C0044018
:1019C00018B004400CC004401CB0044004C00440E3
:1019D00014B00440BC93FF1F80E100E0A493FF1FFC
:1019E000B093FF1F84E100E088E100E000C0024006
:1019F00001401F0000001F80BC660000634B4FF0D9
:101A00008052DA621960DB6A13F0F00F05D05F4B89
:101A10009A6BDA6A12F0F00FFAD15D4B1B78C3B102
:101A200013F0010F03D05B4B1A685B4B1A60584BE5
:101A30001B7813F0020F03D0564B5A68574B1A60AD
:101A4000534B1B7813F0040F03D0524B9A68544B3E
:101A50001A60782001F0ACFA4D4B1B78002B28D08F
:101A600072B64B4B1B7813F0010F07D04D4B196822
:101A70004D4A12680A4047490A601A60444B1B7875
:101A800013F0020F07D0494B1968474A52680A40C1
:101A900040494A601A603E4B1B7813F0040F07D090
:101AA000434B1968404A92680A403A498A601A6072
:101AB00062B6364BDB68B3F1384F0AD0334B3D4A40
:101AC0001A604FF03842DA604FF078421A613A4AB1
:101AD0001A602E4A116895F820301B0443F0006309
:101AE00043F029035363D36A13F0805F04D113F0EA
:101AF000F00FF8D0936BF6E7244B4FF08052DA6288
:101B00001960DB6A13F0F00F05D0204B9A6BDA6A8C
:101B100012F0F00FFAD11E4B1B78002B34D013F0CB
:101B2000010F03D01B4B1A681B4B1A60184B1B7814
:101B300013F0020F03D0174B5A68184B1A60144B5E
:101B40001B7813F0040F1FD0124B9A68144B1A60C5
:101B500070BD12F0010F3FF40FAE17E613F0020F45
:101B60003FF434AE3CE612F0040F3FF45AAE62E6A6
:101B7000124B1B680A4612E6104B1B68134638E6E8
:101B80000E4A12681A465FE670BD00BF00C00240F0
:101B9000BC93FF1FB093FF1F00E100E004E100E0F1
:101BA00008E100E080E100E0A493FF1F84E100E091
:101BB00088E100E001401F0000001F803C800440DD
:101BC0002DE9F04F89B00546894617460093BDF8C8
:101BD00048409EB2C6F101081FFA88F8C6EBC6332A
:101BE0005B009BB2049392B20192324412B223463C
:101BF000FEF796FE019B9A1B2846494612B22346E1
:101C0000FEF78EFE1FFA89F9CDF80C904946314453
:101C1000284609B23A462346FEF782FE039A911BF4
:101C2000284609B23A462346FEF77AFE009B002B6F
:101C300040F3848000220292039B01330593039AB0
:101C4000013A0692019B0133079318F4004F0BD120
:101C5000009A531E1BB20093049A931C9BB29AB233
:101C6000049298441FFA88F8029B9EB208EB46083B
:101C700008F103081FFA88F8DDF814B0B344009A9D
:101C800097B2DDF80490B9440FFA8BFB0FFA89F98B
:101C9000284659464A462346FEF742FE069BC6EBB7
:101CA000030A0FFA8AFA284651464A462346FEF7A7
:101CB00037FE019AC7EB02090FFA89F928465946FF
:101CC0004A462346FEF72CFE284651464A462346FE
:101CD000FEF726FEDDF80C90B944DDF81CA0B244F6
:101CE0000FFA89F90FFA8AFA2846494652462346DE
:101CF000FEF716FE039BDF1B3FB2284639465246CD
:101D00002346FEF70DFE019A02F1FF3AC6EB0A0ADE
:101D10000FFA8AFA2846494652462346FEF700FE45
:101D20002846394652462346FEF7FAFD029B013308
:101D30000293013636B2009AB24286DC09B0BDE8A1
:101D4000F08F00BF2DE9F04F8DB0049009921E4630
:101D50009DF858000690BDF95C200A92BDF86030ED
:101D60000593B3B2C3F10104A4B2C3EBC3335B0068
:101D70009BB20393002E40F38280002500F0010007
:101D8000079089B208914A1C0B922F4614F4004F19
:101D900008D1013E36B20398831C9BB29AB20392DB
:101DA0001C44A4B2BDB26B1C9BB202934FEA45081F
:101DB0001FFA88F808F103031C44A4B2079B4BB335
:101DC00009981FFA80FB1FFA86F90A9A1FFA82FA0D
:101DD0000B992944C9EB0B020AF1010303EB4903F8
:101DE00005980090049809B212B21BB2FEF7BEFE2D
:101DF000089949440BF1FF3BC5EB0B020AF1030ABA
:101E000008EB0A0305980090049809B212B21BB2BD
:101E1000FEF7ACFE069A12F0020F2BD0099B1FFAB8
:101E200083FB1FFA86F90A981FFA80FA089A511E56
:101E3000491BC9EB0B020AF1010303EB49030598A7
:101E40000090049809B212B21BB2FEF78FFE089AF6
:101E5000C9EB02010BF1FF3BC5EB0B020AF1030AD0
:101E600008EB0A0305980090049809B212B21BB25D
:101E7000FEF77CFE0137029A13B29E4286DC0DB05B
:101E8000BDE8F08F2DE9F04184B080460F4615463D
:101E90001C46BDF828609BB2D21A5B000133009645
:101EA00012B21BB2FEF762FE0323009300230193DC
:101EB0000296404639462A462346FFF743FF04B0C0
:101EC000BDE8F0812DE9F04F8FB005468B460392B7
:101ED000BDF860A0BDF864C09DF86860B0F9062048
:101EE0008A4240F3E282B0F908200398824240F32C
:101EF000DC8206EB460201EB4202012A00F1D582A8
:101F000000EBC602012A00F1D082E24540F0568182
:101F1000012E18D003EB8303374606EB46010A91E6
:101F200072000B92B000099006EB8601089108221E
:101F3000059200200490012106919F4A9A180D9263
:101F4000B146564635E103EB8303039A96B206F198
:101F5000080292B203920127974A9A180492B9464E
:101F6000574680E00498815C19EA010F18BF43F0DE
:101F700001035B00DBB20132052AF3D15C08002BC0
:101F800067D01F2C02D01E2C17D10AE000972846DC
:101F9000594632B20523FEF73BFF5AE01E2C10D102
:101FA00001E04FF0000A0AEB0B010097284609B246
:101FB00032B20423FEF72CFF4BE04FF0000A0FFA79
:101FC00086F804F01C031C2B11D11FFA8AFA0AEBC5
:101FD0000B010097284609B242460323FEF718FF7B
:101FE0002401E4B20AF1040A1FFA8AFA2FE004F08D
:101FF0001803182B11D11FFA8AFA0AEB0B0100976C
:10200000284609B242460223FEF702FFE400E4B28A
:102010000AF1030A1FFA8AFA19E014F0100F10D01F
:102020001FFA8AFA0AEB0B01284609B242463B46E0
:10203000FEF776FCA400E4B20AF1020A1FFA8AFA5B
:1020400005E06400E4B20AF1010A1FFA8AFA002CE2
:10205000A4D14FEA49095FFA89F90136B6B203996A
:102060008E4200F02282002213467BE70D98815CAD
:102070000698084218BF43F001035B00DBB201324F
:10208000052AF3D15C08002B00F084801F2C02D0BD
:102090001E2C23D110E00499039B01FB0732CDF8DD
:1020A000009001962846594612B2089BFFF702F8A5
:1020B00070E01E2C1FD101E04FF0000A0AFB07B1AF
:1020C0000498039B00FB0732CDF800900196284648
:1020D00009B212B2099BFEF7EDFF5BE00498039989
:1020E00000FB07134FF0000A1BB207930FFA89F8A1
:1020F0000B9A12B20C9204F01C031C2B13D11FFA82
:102100008AFA07FB0AB1CDF800800196284609B289
:10211000079A0A9BFEF7CEFF2401E4B20AF1040AF3
:102120001FFA8AFA34E004F01803182B13D11FFAAF
:102130008AFA0AFB07B1CDF800800196284609B259
:10214000079A0C9BFEF7B6FFE400E4B20AF1030A1B
:102150001FFA8AFA1CE014F0100F13D01FFA8AFA43
:102160000AFB07B1CDF800800196284609B2079A0C
:102170004346FEF79FFFA400E4B20AF1020A1FFAE9
:102180008AFA05E06400E4B20AF1010A1FFA8AFA49
:10219000002C8ED106984300DBB2069304994B1CA9
:1021A0009BB20493059A531E9BB20593002B00F03B
:1021B0007C810022134659E7C06100009B4A1278D7
:1021C000002A28D072B6994A127812F0010F07D06F
:1021D000974A106897490968014097480160116063
:1021E000924A127812F0020F07D0944A106891496F
:1021F000496801409048416011608C4A127812F0A1
:10220000040F07D08E4A10688A49896801408A48BD
:102210008160116062B68B4AD268B2F1384F0AD041
:10222000884A894911604FF03841D1604FF07841B8
:102230001161864911601FFA8BF406EB460704EB27
:102240004707013FBFB2039881B201EBC6000138D6
:1022500080B295F82020120442F0004242F02A0297
:10226000DFF8E081C8F834204246D2F82C8018F01C
:10227000F00F18BFD2F8389008F47048B8F5405FF6
:10228000F3D8EA7F44EA024444F010446D4A5463B0
:10229000D46A14F0F00F18BFD2F8388004F47044F8
:1022A000B4F5405FF4D8EC7F47EA044444F01044AE
:1022B000644A5463D46A14F0F00F18BF976B04F4A7
:1022C0007044B4F5405FF5D895F82020120442F030
:1022D000004242F02B025B4C62632246D46A14F047
:1022E000F00F18BF976B04F47044B4F5405FF5D855
:1022F000EA7F41EA024141F01041524A5163D16AFA
:1023000011F0F00F18BF946B01F47041B1F5405F0C
:10231000F5D8E97F40EA014141F01041494A516353
:10232000D16A11F0F00F18BF906B01F47041B1F554
:10233000405FF5D895F82020120442F0004242F0A8
:102340002C0240494A630A46D16A11F0F00F18BFC7
:10235000906B01F47041B1F5405FF5D803EB830356
:10236000082104914FF00108394A1344354A9B462D
:1023700045E01BF8070008EA0000002814BF50469B
:1023800060464946EB7F40EA034343F01043536302
:10239000D36A13F0F00F18BF946B03F47043B3F5D6
:1023A000405FF5D80131CBB29E42EBD80137052F03
:1023B000DFD10020EB7F4CEA034343F0104353632B
:1023C000D36A13F0F00F18BF916B03F47043B3F5A9
:1023D000405FF5D80130C3B29E42EBD8039B013376
:1023E0000393DBB29E4201D90027C2E74FEA4808B7
:1023F0005FFA88F80498431E9BB204932BB1002E19
:10240000F4D0002103918946EEE70E4B196895F848
:102410002020120442F000625A63DA6A12F0805FF0
:1024200018D112F0F00FF8D09A6BF6E7BC93FF1FAB
:1024300080E100E0A493FF1FB093FF1F84E100E060
:1024400088E100E000C0024001401F0000001F8042
:10245000C0610000164B4FF08052DA621960DB6AEF
:1024600013F0F00F05D0124B9A6BDA6A12F0F00FEE
:10247000FAD1104B1B78C3B113F0010F03D00E4BF0
:102480001A680E4B1A600B4B1B7813F0020F03D027
:10249000094B5A680A4B1A60064B1B7813F0040F5D
:1024A00003D0054B9A68074B1A600FB0BDE8F08F58
:1024B00000C00240BC93FF1FB093FF1F00E100E08B
:1024C00004E100E008E100E02DE9F00F84B00392A0
:1024D0000193DDF830A00091002900F0C281AC4BDF
:1024E0001B78002B28D072B6A94B1B7813F0010F74
:1024F00007D0A84B1968A84A12680A40A7490A6081
:102500001A60A34B1B7813F0020F07D0A44B196875
:10251000A14A52680A40A1494A601A609C4B1B7844
:1025200013F0040F07D09F4B19689B4A92680A402A
:102530009A498A601A6062B69B4BDB68B3F1384FE8
:102540000AD0994B994A1A604FF03842DA604FF03E
:1025500078421A61964A1A600D9B534402930022F6
:10256000914B019F07F101094FF0805B90F820101B
:10257000090441F0004141F02B015963D96A11F07F
:10258000F00F18BF9C6B01F47041B1F5405FF5D8B6
:102590001FFA8AF4C17F44EA014141F010415963B6
:1025A000D96A11F0F00F18BF9D6B01F47041B1F5BD
:1025B000405FF5D8C17F44EA014141F010415963C1
:1025C000D96A11F0F00F18BF9C6B01F47041B1F59E
:1025D000405FF5D8019C4D46039901E00134013577
:1025E0000139012707FA01F6009F3E4201D001326E
:1025F0007FE0002A40F3318190F82060360446F0F5
:10260000004646F02A065E63DE6A16F0F00F18BF39
:102610009F6B06F47046B6F5405FF5D8A61AB6B2C1
:1026200090F81FC046EA0C4646F010465E63DE6A2C
:1026300016F0F00F18BF9F6B06F47046B6F5405FBA
:10264000F5D8A6B290F81FC046EA0C4646F01046F0
:102650005E63DE6A16F0F00F18BF9F6B06F47046DB
:10266000B6F5405FF5D890F82060360446F0004695
:1026700046F02C065E63DE6A16F0F00F18BF9F6B03
:1026800006F47046B6F5405FF5D810E0C77FC689FE
:1026900046EA074646F010465E63DE6A16F0F00F23
:1026A00018BF9F6B06F47046B6F5405FF5D8013A47
:1026B000ECD1D3F800C090F81F80C68946EA0846DE
:1026C00046F0C0565E63DE6A16F0805F04D116F0F5
:1026D000F00FF8D09E6BF6E7C3F82CB0C3F800C03B
:1026E000DE6A16F0F00F04D09E6BDE6A16F0F00F73
:1026F000FAD100297FF472AF1746002A40F38A808E
:1027000090F82010090441F0004141F02A0159637A
:10271000D96A11F0F00F18BF9C6B01F47041B1F54C
:10272000405FF5D8E91B89B2C47F41EA044141F01A
:1027300010415963D96A11F0F00F18BF9C6B01F476
:102740007041B1F5405FF5D8ADB2C17F45EA0141B6
:1027500041F010415963D96A11F0F00F18BF9C6B1A
:1027600001F47041B1F5405FF5D890F820100904EC
:1027700041F0004141F02C015963D96A11F0F00F8A
:1027800018BF9C6B01F47041B1F5405FF5D822E0B1
:10279000BC93FF1F80E100E0A493FF1FB093FF1FD5
:1027A00084E100E088E100E000C0024001401F0039
:1027B00000001F80C47FC18941EA044141F01041FB
:1027C0005963D96A11F0F00F18BF9C6B01F4704186
:1027D000B1F5405FF5D8013AECD11C68C57FC189DD
:1027E00041EA054141F0C0515963D96A11F0805F57
:1027F00004D111F0F00FF8D0996BF6E7C3F82CB0C4
:102800001C60D96A11F0F00F04D0996BD96A11F0ED
:10281000F00FFAD10AF1010A02998A457FF4A6AEB7
:10282000124B1B78EBB113F0010F03D0104B1A6859
:10283000104B1A600D4B1B7813F0020F03D00C4B9A
:102840005A680D4B1A60094B1B7813F0040F08D01F
:10285000074B9A68094B1A6003E000297FF4BEAE6B
:10286000D8E704B0BDE8F00F704700BFBC93FF1F6E
:10287000B093FF1F00E100E004E100E008E100E0A8
:102880002DE9F04F87B00746D0F818B09BF80E300E
:102890008B4209D89BF80F20914205D8CB1A9BF8A0
:1028A000121001FB03F113E09BF810209142C0F0DD
:1028B000FF809BF81100814200F2FA809BF80F0024
:1028C00001300144CB1A9A1A9BF8121001FB02F155
:1028D000DBF800009BF81220FDF7D4FFDBF808308E
:1028E00003EB0008404600210322FDF7CBFF002840
:1028F00040F0DE809BF81390404603214A46FDF7E6
:10290000C1FF044609F103099BF81460404649469B
:102910003246FDF7B7FF0546B1449BF815604046C7
:1029200049463246FDF7AEFF731E012202FA03F359
:10293000184204D002FA06F3C31A049300E004908C
:10294000049A0392B1449BF81660404649463246C9
:10295000FDF798FF731E012202FA03F3184204D018
:1029600002FA06F3C31A059300E00590B1449BF800
:102970001760404649463246FDF784FFB7F90A30F2
:10298000002BBCBF00237B817B89039A02FA83FA68
:10299000BAF1000F04DA049A9B1A7B814FF0000A07
:1029A0000AEB0402B7F906309A4210DD3B7D002B9A
:1029B0007ED0039B002BAEBF0023049A53427B8141
:1029C0009BF81820BB891344BB814FF0000ABB89D8
:1029D000B7F908101AB291426ADD7A8910447881F9
:1029E0009BF8192002FA83F35B1B059AC2EB030BD9
:1029F0000495002D5CD0B1443B465F469B4609F1EF
:102A000001064FEAD90318F803206FEA090303F01F
:102A1000070342FA03F313F0010F20D10025C5EBA1
:102A20000409B9F1200F28BF4FF020094046314674
:102A30004A46FDF727FF01460097012301935846B8
:102A40004A4605EB0A03FFF73FFD4E444D44AC42B6
:102A5000E5D80137049A013A0492B14625E0404690
:102A600031460322FDF70EFF0230039009F10409FD
:102A70000025661B202E28BF2026404649463246A8
:102A8000FDF700FF01460097039B0193584632462D
:102A900005EB0A03FFF718FDB1443544AC42E8D812
:102AA000039A1744049B9B1A0493049A002AA6D104
:102AB00007B0BDE8F08F00BF10B584B004460B46E8
:102AC00082695AB10A2906D1127E8389134483810F
:102AD0000023438134E0FFF7D3FE31E00A2907D118
:102AE000827C838903EBC20383810023438127E037
:102AF0000D2925D0B0F90A10B0F90C20C08900903A
:102B0000208A0190A07C02902046FFF7DBF9A37C8D
:102B100003EB4301628902EB410292B26281217DA3
:102B200071B112B2B4F90610A3EB830001EB4001BE
:102B30008A4205DDA28902EBC303A38100236381DE
:102B4000012004B010BD00BF002908BF012181741D
:102B5000704700BF0182C181704700BF184B1A68DF
:102B600042F480521A60174B174A1A60174ADA600B
:102B700002F180421A61164A1A60164B1B7813F054
:102B8000010F07BF4FF41072134B4FF40072134B39
:102B90001A60104B1B7813F0020F4FF400720CBF39
:102BA0000F4B104B1A600B4B1B7813F0040F07BF31
:102BB0004FF410720C4B4FF400720C4B1A607047BC
:102BC0003C80044000C0024001401F00011000385A
:102BD00000001F80B594FF1F18B0044008C00440D7
:102BE0001CB004400CC0044014B0044004C00440B5
:102BF0000238152818D8DFE800F00B171717191737
:102C000017190B1717171715171717170D11130F7C
:102C10000120704704207047042070470820704747
:102C2000082070471020704700207047022070472E
:102C300038B50C46FFF7DCFF054650B12046FFF7DC
:102C4000D7FF40B1054015F0FF0F14BF0020012051
:102C500038BD002038BD002038BD00BF023815281F
:102C600042D8DFE800F0114141411D4141170B41BD
:102C70004141413B41414141232F35294FF40072ED
:102C80001A4B1A60012070474FF40072184B1A60FB
:102C9000012070474FF40072164B1A6002207047F3
:102CA0004FF40072144B1A60022070474FF4007208
:102CB000124B1A60042070474FF40072104B1A60D8
:102CC000042070474FF400720E4B1A6008207047C2
:102CD0004FF400720C4B1A60082070474FF40072DA
:102CE0000A4B1A60102070470020704710B0044053
:102CF00000C004400CB0044010C0044014C00440A4
:102D000008B0044018C0044004B0044000B00440BF
:102D1000024A137813F0010FFBD070470100024004
:102D200010B584B01B4B6C46186859689A68DB680C
:102D30000FC4194B1B7813F0020F23D0174B1B78CD
:102D400013F070031CBF154A13708022144B1A70C5
:102D50000022033B1A70332207331A700322013B0F
:102D60001A7072B66B4643F001030C4C204698472C
:102D700062B6237813F0700304D0237008E0013B9F
:102D800002D105E0074B04490A7812F0010FF6D092
:102D900004B010BD3867000001000240000002408E
:102DA00007000240410D030010B50446B0F5006F66
:102DB0000BD2074B1B7813F0010F01D1FFF7B0FFC7
:102DC00004F1A0542078C0B210BD002010BD00BF97
:102DD0000100024010B5044640F2FC7398420AD844
:102DE000064B1B7813F0010F01D1FFF799FF04F197
:102DF000A054206810BD002010BD00BF010002409B
:102E000070B504460D468E180C4B1B7813F0010F5D
:102E100001D1FFF785FFB6F5006F34BF32464FF49E
:102E20000062954209D205F1A05102F1A05211F8B9
:102E3000013B04F8013B9142F9D170BD0100024011
:102E400038B504460D46B0F5006F16D20B4B1B7813
:102E500013F0010F01D1FFF763FF04F1A0542378B1
:102E6000DBB2AB4209D0064B1B7813F070031CBFDA
:102E7000034A13702570FFF74BFF38BD0100024075
:102E800000000240044B00221A6004490A60044A10
:102E9000106010221A60704714D0034004D0034021
:102EA00000D0034021281ED80F4B53F8303093F840
:102EB000802212F0FF0F08D019B1012283F8802080
:102EC0007047012283F800217047074B03EBC000D5
:102ED000436821B11A6842F003021A6070471A6809
:102EE00022F002021A6070474867000021283AD891
:102EF0001D4B03EBC0035B68012919D0042925D0C1
:102F0000194A52F83020002082F8800219B94FF493
:102F100080721A607047022903D140F203121A60CE
:102F2000704703290CBF4FF4817200221A6070476A
:102F30000D4A52F83020012182F880124FF4A2721B
:102F40001A601A6822F020021A607047064A52F886
:102F50003020012182F880124FF4A2721A601A68A0
:102F600042F020021A6070474867000072B60C4BAE
:102F70001B680C4A12680C49096862B611F0806F30
:102F800002D0322B88BF0132C3F5BB33FF33074970
:102F9000A1FB03039B094FF47A7000FB02307047DA
:102FA00018E000E0C093FF1F04ED00E0ABAAAAAA5E
:102FB00038B50546FFF7DAFF044625B938BD013DAF
:102FC0000AD004F57A74FFF7D1FF001BB0F57A7FC1
:102FD000F5D200F005FFF6E738BD00BF10B5264B6F
:102FE0004FF400021A604FF080721A604FF00072C6
:102FF0001A604FF080621A604FF000621A60002081
:103000001E4B18604BF6FF710433196028231C4ACD
:1030100013600832136008321360083213600832FC
:1030200013600832136008321360083213600922FB
:10303000144C226004F58054043420600434216070
:103040000434236008342360143C226004F5FE2419
:10305000043420600C4801600C490B6008310B609F
:103060000B4B1A6000F0DEFE4FF4C870FFF7A0FFB4
:1030700000F074FC10BD00BF08E100E004800340D4
:103080000C8003400080034008800B400C800B4004
:1030900000800B4030B40E4B1B7843F002020D4C05
:1030A00004EBC20460600C48007800280CBF882440
:1030B000C82444EA0141074D45F8321080F0010070
:1030C000054A107083F00103014A137030BC704749
:1030D0002C94FF1F0080FF1FA594FF1F10B4431EF8
:1030E000032B11D872B60A4A52F8230050B1426835
:1030F000074941F82320074A32F813400188611A32
:1031000022F8131062B600E000205DF8044B70470F
:103110001C94FF1FC096FF1F013803280DD872B6FC
:10312000074B53F820302BB1002001305B68002B97
:10313000FBD100E0002062B670470020704700BF5E
:103140007094FF1F38B572B601231B491B4C5A18E7
:1031500012F8012C12F0080F24D09A0054F83250C3
:103160006DB9164B03EBC20108304860144943F8AF
:103170003210144B1A78013A1A7062B638BD42F018
:10318000010254F832506DB90C4B03EBC201083008
:1031900048600D4943F832100A4B1A78013A1A7008
:1031A00062B638BD0133052BD1D162B60022054B82
:1031B0001A7000F037FC38BD886800000080FF1FDF
:1031C000880040009A94FF1FC800400010B4431EBE
:1031D000032B37D8400140F010001C4A104472B64F
:1031E0001B4AD25C032A09D8DFE802F019021B054A
:1031F0000830022216E00830042213E0154A52F883
:1032000023201AB9134A42F8231003E0124A52F855
:1032100023205160104A42F8231062B612E00322C4
:1032200000E005220A4CE25401F10803436000F07B
:103230000803002B0CBF8823C8230A8843EA0243F3
:10324000036062B65DF8044B704700BF0080FF1F4B
:10325000D893FF1F7094FF1F8094FF1F2DE9F84F34
:10326000A34CDFF8E092DFF8E0A2DFF8E0B22578C7
:10327000EDB215F0040F1DD09E4B1B7813F0FF0F1D
:1032800016D09D4B1B7803F0FF022BB1531EDBB20F
:10329000994A137003B900BE984B1B7803F0FF02E4
:1032A00033B1531EDBB2954A13700BB900F018FD11
:1032B0000423237015F0080F00F0E48299F8003021
:1032C000DBB21D0940F021828D4D9E0805EBC6033F
:1032D0005A6855F83630C3F38303013B0C2B00F2D8
:1032E0001082DFE813F0CB01CB010E020E020E02BA
:1032F0000E020E020E02E8010E020E020E020D0078
:10330000804913680B6052684A607F4A45F836204E
:1033100000227E490A607A490A618A6101217C4A59
:1033200011709BB240F28162934218D8B3F5D06F0E
:103330002ED2B3F5817F00F01E8106D8802B00F0DD
:10334000C980822B00F0CC8066E140F202329342C9
:1033500000F02681B3F5A06F00F062815CE142F2DB
:103360002102934200F0868107D8B3F5086F00F080
:10337000AB80B3F5106F11D04EE142F2212293429F
:1033800000F0418142F22132934200F0498143E151
:10339000604B5D68002D40F0188130E1594B9A7800
:1033A000544B1A70564D05F180062B6A13F0800FAE
:1033B00003D0686A083800F035FB0835B542F4D10F
:1033C000DFF88C8100263746534AB05828B145684B
:1033D00000F028FB0DB12846F9E700234E49735051
:1033E0004E4AB3504E4BF05828B1456800F01AFBD6
:1033F0000DB12846F9E7002349497350494AB350B3
:1034000028F8023F484BFB5C023B032B0AD8DFE85D
:1034100003F0020602060022434BDA5502E00122C5
:10342000414BDA5501370436102ECDD100223F4BE7
:103430001A7001253E4EDFF81C81314F05EB080361
:1034400013F8013C06F8043B13F0080F2DD000F0F0
:10345000C9FA48B1A90007EB451200F1080353600F
:10346000344A47F8312007E0AB00002247F8332008
:103470002E4B1A7801321A7000F0B4FA58B1AB0032
:1034800043F0010307EBC30100F108024A601E4A42
:1034900047F8332009E0AB0043F00103002247F86E
:1034A0003320224B1A7801321A70AA0042F002012E
:1034B000002347F8313042F0030247F8323001353B
:1034C0001D4B9E42BAD11EE20A4B1B781B4D2B703E
:1034D0000127AAE0194D00232B706B700227A4E08E
:1034E000084B9B88042B37D90F22154B1A70C1E06B
:1034F00080200740A494FF1F2D94FF1FA694FF1F58
:103500000080FF1F9094FF1FC8004000C493FF1F5E
:10351000A594FF1F8C6800001C94FF1FC893FF1F19
:103520007094FF1F8094FF1FD893FF1F9A94FF1F72
:10353000C420074088004000D42007409C94FF1F0F
:10354000C020074090200740942007409820074063
:10355000BE96FF1F88680000A04A002111705170BC
:103560009F4A12F8233013F0020F5CD09B4D0123C9
:103570002B70022759E09B4B9B8803F07F03042BA1
:1035800002DC984A52881AB10F22954B1A7071E0EA
:10359000934A12F8231021F0020102F82310B2E13D
:1035A000904B9B8803F07F03042B02DC8D4A5288EA
:1035B0001AB10F228A4B1A705CE0894A12F8231064
:1035C00041F0020102F823109DE1864B5E889F883E
:1035D000854BA3F10C02114633F80C0CB04209D113
:1035E00033F80A0CB84205D1360A032E0CBF2F78E7
:1035F00017891AE00D690C330C32002DEBD10F2224
:10360000774B1A7036E0794B1A68794B1A60754B14
:103610009A78784B1A7076E10F22714B1A7029E074
:1036200000273D4601E002276C4D6E4BDB889F4230
:1036300028BF1F46402F34BF3E464026284631460D
:10364000FFF728FD3544BF1B03D13F2E00F26081F8
:1036500010E0402F34BF3E46402628463146FFF753
:1036600019FD3544BF1B01D13F2E03D9624B1D60AC
:10367000624B1F8001238AF8003042E0594B1988C1
:1036800042F22103994212D15D4BD81D12F8011B61
:1036900003F8011F8342F9D15A4B1B68862B02D1D4
:1036A0000F22594B1A7000200146FFF7F3FC574BCD
:1036B00045F8363025E0504B1E68BEB14F4FB7F885
:1036C0000080B8F1400F34BF4546402530462946BA
:1036D000FFF7E0FCC5EB08039BB23B800BB9402D24
:1036E00001D1354400E00025434B1D603D4B1B8854
:1036F000B3F5A06F05D13B4B00225A709B788BF835
:10370000003001238AF80030B9E0414E9F0806EBF3
:10371000C708D8F80420A2F10800013DEDB213F06B
:10372000080F47D000F07EF93A4B53F825304BB3E1
:103730005A68384941F8252003F10802C8F80420E6
:10374000354A525D032A12D8DFE802F002060A0E5B
:103750000321314A51550AE002212F4A515506E012
:1037600005212D4A515502E004212B4A515518F0EC
:10377000080F0CBF8822C8221B8842EA034346F880
:1037800037307CE0244B5B5D032B0BD8DFE803F084
:10379000777702060022204B5A5570E001221E4B1B
:1037A0005A556CE018F0080F0CBF022203221A4B86
:1037B0005A5564E056F837301B0C22F8083C002BB1
:1037C00055D0002322F8063C42F8043C134B53F832
:1037D00025302BBB114B43F8250025E09C94FF1F9F
:1037E000C02007409094FF1F98680000C093FF1FFF
:1037F000D096FF1FB494FF1FC493FF1F9894FF1F20
:10380000C796FF1FC896FF1F2D94FF1FC8004000DA
:103810000080FF1F7094FF1FD893FF1F1C94FF1F91
:103820003F4B53F8253058603D4B43F825003D4B46
:1038300033F8151032F8082C0A4423F8152000F04C
:10384000D1F860B100F10803C8F8043018F0080F8F
:10385000354B364A08BF134646F837300FE0002391
:1038600046F83730324B1A7801321A7007E018F0F8
:10387000080F2D4B2D4A08BF134646F83730082352
:103880002370F4E415F0010F22D02A4902230B70B3
:103890000022294B1A70294B24481860284C5C6080
:1038A00098602848D8601A619A610D20264B1870DC
:1038B000FF23264803700838037018300270244A2A
:1038C00013709F22234B1A7001230B70BDE8F88FF1
:1038D00015F0800F05D00D221B4B1A708022403B43
:1038E0001A7015F0020F06D0184B1A78D2B21A705F
:1038F0000222083B1A7015F0100F0ED01022164B42
:103900001A70BDE8F88F00200146FFF7C3FBB1E64F
:1039100028460021FFF7BEFBACE6BDE8F88F00BFEC
:10392000C893FF1FC096FF1FC800400088004000DA
:103930009A94FF1F942007402C94FF1F0080FF1FC4
:10394000DC93FF1F3094FF1FC020074088200740F2
:103950008C200740842007408020074008B501F0F4
:103960004FFD00231B491A465A50C81842600833BD
:10397000882BF9D1184B1A6842F480221A60154B33
:10398000C3F30721154A1170C3F3074114321170B4
:103990001B0E04321370FF23343A13700832137075
:1039A000783A137001238432137000216C32117045
:1039B0007C3A137070220A4B1A704FF40072A3F213
:1039C00041331A60102203F1C04303F5C8231A7073
:1039D00008BD00BF0080FF1F348004409C200740CA
:1039E00049E400E072B60D4B1A68B2FA82F30B2B71
:1039F00002D962B6002070474FF00041D94022EA58
:103A0000010206490A6062B6054903EBC303DB0005
:103A1000C8180022CA504260704700BF6887FF1F65
:103A20000084FF1F08B50F4BC31A0F4AA2FB0313F4
:103A30001B090B2B14D80D4A12783AB10C4A127894
:103A400012F0FF0F02D0FFF77DFB08BD72B6094AE6
:103A50004FF0004121FA03F311681943116062B677
:103A600008BD00BF0084FF1F398EE3389A94FF1F02
:103A7000A494FF1F6887FF1F10B5134B1B6853B931
:103A8000124B1B7813F0FF0F18D00320FFF726FB13
:103A90000D4B1860A8B10C4B186843885A1C03449E
:103AA0001C7A03889A4206D3FFF7BCFF0022064B1C
:103AB0001A60204610BD4280204610BD4FF0FF30F6
:103AC00010BD4FF0FF3010BDB094FF1FA494FF1F36
:103AD00008B50D4B1B6883B90C4B1B7813F0FF0F17
:103AE00008D00320FFF7FAFA074B186028B94FF007
:103AF000FF3008BD4FF0FF3008BD034B1B685A88EC
:103B00001344187A08BD00BFB094FF1FA494FF1F90
:103B1000044B9888044B1B681BB11A885B88D31A26
:103B200018447047C096FF1FB094FF1F10B50B4B91
:103B30001B7813F0FF0F0FD0094B186820B1FFF767
:103B400071FF0022064B1A6003242046FFF7C6FAD5
:103B500010B1FFF767FFF8E710BD00BFA494FF1F87
:103B6000B094FF1F2DE9F84F04460122384B1A701C
:103B70008B46002965D00E46DFF8E080DFF8E09044
:103B80009A46344FD8F8003083BB99F8003013F0D0
:103B9000FF0F06D100222E4B1A704FF0FF30BDE808
:103BA000F88F4AF2F9250420FFF7B6FA07280AD859
:103BB00001238AF80030FFF715FFC8F80000A8B904
:103BC00000238AF80030013D01D03B7833B1012257
:103BD000204B1A704FF0FF30BDE8F88F00F000F96D
:103BE00099F8003013F0FF0FDDD1D3E700233B70CD
:103BF000D8F800104A88C2F14005AE4238BF3546B9
:103C000002F108030B442A444A80761B3DB1254447
:103C100014F8012B03F8012BAC42F9D100E0254642
:103C20004B883F2B07D940230B800420FFF7CEFAA7
:103C30000023C8F800300522074B1A700EB12C463D
:103C4000A0E70022024B1A705846BDE8F88F00BF6B
:103C5000A794FF1FAC94FF1FA694FF1FA894FF1FFB
:103C6000A494FF1F00B583B002AB03F8010D184602
:103C70000121FFF777FF03B05DF804FB10B5144B8B
:103C80001B7813F0FF0F21D00122124B1A70124B38
:103C9000196851B10024114B1C704B880B80042013
:103CA000FFF794FA0C4B1C600DE0FFF79BFE0146FA
:103CB00030B10022094B1A700420FFF787FA02E0A6
:103CC0000122064B1A700022024B1A7010BD00BF71
:103CD000A494FF1FA794FF1FA894FF1FA694FF1F83
:103CE00008B50E4B1B7813F0FF0F16D10C4B19685B
:103CF00041B14B880B800420FFF768FA0022084B83
:103D00001A6008BDFFF76EFE014618B10420FFF7E8
:103D10005DFA08BD0122034B1A7008BDA794FF1F6E
:103D2000A894FF1FA694FF1FF8B506460F46144639
:103D300052B1002533681B68304617F8011B9847BD
:103D40000544013CF6D100E000252846F8BD00BF3F
:103D500000B583B0054B1B88ADF8043003685B6881
:103D600001A90222984703B05DF804FB58680000DF
:103D700008B5FCF7A9FBFCF70BFC00F031F8FAE7FB
:103D800008B5FFF7C5FE08BD08B5FFF775FE08BD0D
:103D900008B5FFF79DFE08BD08B5FFF76FFF08BD2A
:103DA00008B5FFF7C3FE08BD08B50846FFF75AFF80
:103DB00008BD00BF08B508461146FFF7D3FE08BD91
:103DC000704700BF044B00221A714FF47A7199605A
:103DD0001A73024A1A607047B894FF1F686800009F
:103DE00008B50F4B1B78CBB901220D4B1A70FFF7AA
:103DF0008FFE08B1FFF7E4FF00F094FB08B101F07B
:103E0000D5FB00F041FF08B101F072FC01F00EFAA1
:103E100008B101F00FFD0022014B1A7008BD00BF70
:103E2000C894FF1F60223A4B1A70E12201331A70C6
:103E3000384B1B78082B10D1012203F1804303F586
:103E40006C331A60132334490B6001F5FF2101F232
:103E5000FC710A60314A13601FE00A2B0DD1392230
:103E60002F4B1A6013232C490B6001F5FF2101F23F
:103E7000FC710A60294A13600FE00C2B0CBF35223D
:103E80003D22274B1A60122323490B6001F5FF21C5
:103E900001F2FC710A60214A1360224B1B7833B196
:103EA0000123214A136002F50022136005E000237C
:103EB0001D4A136002F5002213601C4B1B78012B76
:103EC00006D880231A4A136002F5002213601AE014
:103ED000042B06D88423164A136002F500221360CF
:103EE00011E0082B06D88523114A136002F5002241
:103EF000136008E0102B94BF862387230C4A1360BD
:103F000002F50022136001220A4B1A70704700BFAD
:103F1000004007406C87FF1F0CB003400CB00B4003
:103F200008B00340CA94FF1F20B003406D87FF1FF5
:103F300024B00340C994FF1F024B1A6801321A6073
:103F4000704700BFC093FF1F08B50D4C236813F4E2
:103F5000802F01D0FFF782F9236813F4806F01D01E
:103F600000F06AFB236813F4006F01D000F016FF25
:103F7000236813F4805FE9D001F0CEF9E6E700BFD3
:103F80003480044008B5FFF7DFFF00BF1022014B6B
:103F90001A80704700200540704700BF024A13682E
:103FA00018441060184670477087FF1FEFF31383A3
:103FB000ABB9EFF31083ABB9EFF3058323B10F2B4C
:103FC00005D9094A985C03E04FF4807000E00020B6
:103FD000EFF311833BB1834238BF184670474FF06F
:103FE000FF30704700207047F0E300E030B400235A
:103FF000B0FBF2F402FB14041D46092C94BF3034CC
:104000003734E4B2CC54B0FBF2F008B10133EFE73F
:104010000D4400226A70934207DD885CCC5C8C54AE
:10402000C8540132013B9A42F7DB084630BC704766
:10403000254B1A6842F480621A600023234A1370E9
:10404000234A1370234A1370234A1370234A1370B0
:10405000234B1B7813B1152B05D008E040F2133227
:10406000204B1A6003E040F213321F4B1A601F4BC3
:104070001B78012B02D0052B05D008E04FF45172BC
:104080001B4B1A6003E04FF451721A4B1A60C0F3D5
:104090004432194B1A70C0F347125A7000F01F00D7
:1040A000987204229A700221D9745A7588221A745F
:1040B0003C22DA704022114B1A704FF40052A3F2E6
:1040C00029331A60704700BF348004405895FF1FA1
:1040D000D194FF1F6095FF1F5995FF1FD094FF1FBC
:1040E0001495FF1F40A0044018C004407487FF1FB0
:1040F00044A004401CC0044000A006402DE400E0A1
:10410000164B9B7803F0EC0300F00302134310F00E
:10411000040F18BF43F01003104A937000F00F0310
:10412000042B04D11346927942F040029A710B4B52
:104130005A7902F0EF0210F0100F18BF42F010028F
:10414000064B5A719B7903F0EF0310F0200F18BF54
:1041500043F01003014A9371704700BF00A006406E
:1041600010B5144B1B6813F4806F21D0124B1B78D1
:1041700013F0FF0F06D0104CFFF732FE237813F038
:10418000FF0FF9D14FF400520C4B1A6000230C4A78
:10419000D37040F203120B490A6004310A600A4AE4
:1041A00013700A4A13700A4B1B680BB101221A7074
:1041B00010BD00BF34800440D094FF1F84E100E0B4
:1041C00000A0064040A004405895FF1FD194FF1F57
:1041D000CC94FF1F10B50446094A137813F0FF0F63
:1041E000FBD120460121FEF781FE20460021FEF78B
:1041F00059FE044B53F83420034B1A6010BD00BF26
:10420000D094FF1F486700005C95FF1F10B40C4658
:1042100009B140F08000184B1B78984228D0174A0B
:10422000126812F4806F21D003F07F03012B02D0BB
:10423000052B04D006E00022114B1A6002E0002298
:10424000104B1A60002C0CBF4422602200F07F0348
:10425000012B02D0052B05D008E042F44072084B38
:104260001A6003E042F44072064B1A60024B187069
:104270005DF8044B704700BF7487FF1F3480044013
:1042800044A004401CC00440114B1B7898421ED02F
:10429000104A126812F4806F17D013B1152B04D096
:1042A00006E000220C4B1A6002E000220B4B1A6061
:1042B00010B1152805D008E040F21332064B1A6001
:1042C00003E040F21332054B1A60014B187070473F
:1042D0001495FF1F3480044040A0044018C00440DF
:1042E00010B50D4B1B6813F4806F12D021280CD829
:1042F0000A4C0B4B53F8303023600121FEF7F6FDDA
:10430000236800221A70012010BD0020034B1860A2
:1043100010BD002010BD00BF34800440CC94FF1FAE
:1043200048670000114B1B6813F4806F1BD01228E4
:1043300004D140F202320E4B1A600DE0142804D171
:1043400040F202320B4B1A6006E00B4B5A7B02F034
:10435000FE025A7300207047074B5A7B42F001025D
:104360005A73012070470020704700BF348004401A
:104370000CA0044014C0044000A006402DE9F04108
:1043800007461F4B1B6813F4806F37D01D4B1B680B
:104390000BB101221A701C4B1C780134402C28BF31
:1043A00000241A4D1A4EDFF86C8017E0FFF7FEFD6F
:1043B00040280FDC337913F0800F0FD02B780133B6
:1043C000402B28BF002318F80320D2B2F271DBB2D1
:1043D0002B7003E0FF2801DDFFF702FD2B78DBB235
:1043E0009C42E3D0FFB20B4B1F5501220A4B1A70BF
:1043F000E4B2054B1C70BC22054BDA70BDE8F081BD
:10440000348004405C95FF1F6095FF1F5995FF1F86
:1044100000A00640D494FF1FD094FF1F2DE9F84F51
:104420000746284B1B6813F4806F49D0264B1B6846
:104430000BB101221A7007EB010B5F453DD2DFF88B
:104440009890224EDFF88C80DFF890A099F8004019
:104450000134402C28BF00243578EDB2A54220D18C
:10446000BC2388F80330FFF7A1FD402811DC98F841
:10447000043013F0800F10D033780133402B28BF65
:1044800000231AF80320D2B288F80720DBB2337079
:1044900003E0FF2801DDFFF7A3FC3378DBB29D4288
:1044A000E1D017F8013B0AF804300122084B1A70DA
:1044B000E4B289F800405F45C8D1BC22054BDA70F0
:1044C000BDE8F88F348004405C95FF1F5995FF1FAD
:1044D000D094FF1F00A006406095FF1FD494FF1FDB
:1044E00010B5064B1B7813F0FF0F06D0034CFFF7F7
:1044F00077FC237813F0FF0FF9D110BDD094FF1F84
:10450000064B1B78DBB2064A1278D2B293422CBF1C
:104510003F3202F1FF32D01A704700BF6095FF1F93
:104520005995FF1F054B1878C0B2054B1B78DBB2BD
:10453000984238BF4030C01A704700BF5895FF1FDF
:10454000D194FF1F10B4184B1A78D2B2174B1B78B6
:10455000DBB29A4218D001333F2B18D81449C85CFB
:10456000C0B2DCB211490C7012490968C9B19A4253
:1045700003D300E00023D31A01E04032D31A1A2BF0
:104580000FDC00230B700CE04FF0FF3009E0084B0C
:104590001878C0B20021054B1970064B1968002924
:1045A000E8D15DF8044B70475895FF1FD194FF1F69
:1045B0001895FF1FCC94FF1F094B1A78D2B2094BF4
:1045C0001B78DBB29A4207D00133402B28BF00236F
:1045D000054AD05CC0B270474FF0FF30704700BF53
:1045E0005895FF1FD194FF1F1895FF1F0D4B1B6897
:1045F00013F4806F14D00C4BDA7802F0CB02DA702F
:1046000040225A74DA7842F03402DA70074B1A7892
:10461000D2B2074B1A70074B1B680BB100221A70FD
:10462000704700BF3480044000A00640D194FF1FB3
:104630005895FF1FCC94FF1F70B43D4B1B7913F0AE
:10464000300F33D072B63A4B9B7D03F0FF022BB98B
:10465000374BDA7940225A7462B627E062B6354B9E
:104660001978C9B2344B1C78E4B2314D334EEB7932
:10467000D8B24B1C402B28BF0023A3421CBFF054D0
:104680001946531E13F0FF02F1D1CAB2294B1A701A
:104690002B4B1B6853B1A1422EBFC4EB0101C4F1E7
:1046A000400409192729C4BF01221A70204BDA7867
:1046B000D2B212F0800F27D01B7913F0800F23D0D5
:1046C000204B1C78E4B2204B1B78DBB29C4210D00C
:1046D00017491E4D01E0A3420BD00133402B28BFE8
:1046E00000230879E85CC0B2C871087DC0B2072811
:1046F000F1D9DBB214490B700D4B1B7913F0800F0D
:1047000002D07C210A4BD97012F0400F0ED0084B1A
:104710001B7913F0400F09D000220D4B1A700D4B7E
:104720001B6803B11A703C22014BDA7070BC7047F1
:1047300000A006405895FF1FD194FF1F1895FF1F3A
:10474000CC94FF1F6095FF1F5995FF1FD494FF1F46
:10475000D094FF1F5C95FF1F254B1A6842F400623E
:104760001A600023234A1370234A1370234A1370DC
:10477000234A1370234A1370234B1B78092B02D052
:104780001A2B05D008E040F21332204B1A6003E0E8
:1047900040F213321E4B1A601E4B1B780A2B02D0BC
:1047A0001F2B05D008E04FF451721B4B1A6003E039
:1047B0004FF45172194B1A60C0F34432184B1A70FF
:1047C000C0F347125A7000F01F00987204229A70CA
:1047D0000221D9745A7588221A743C22DA70402258
:1047E000104B1A704FF40042A3F22B331A6070473B
:1047F00034800440D495FF1F6995FF1FDC95FF1F8F
:10480000D595FF1F6895FF1F7587FF1F0CB00440EB
:1048100004D004407687FF1F10B0044000D004404D
:1048200000B006402FE400E0164B9B7803F0EC0349
:1048300000F00302134310F0040F18BF43F01003FD
:10484000104A937000F00F03042B04D113469279A1
:1048500042F040029A710B4B5A7902F0EF0210F0CD
:10486000100F18BF42F01002064B5A719B7903F0EB
:10487000EF0310F0200F18BF43F01003014A9371AB
:10488000704700BF00B0064010B5224B1B6813F400
:10489000006F3ED0204B1B7813F0FF0F06D01E4C4C
:1048A000FFF79EFA237813F0FF0FF9D14FF400427F
:1048B0001A4B1A6000221A4BDA701A4B1B78092B1C
:1048C00002D01A2B05D008E040F20312164B1A60F2
:1048D00003E040F20312154B1A60154B1B7803F0EE
:1048E0007F030A2B02D01F2B05D008E040F20312F1
:1048F000104B1A6003E040F203120F4B1A600023C2
:104900000E4A13700E4A13700E4B1B680BB1012236
:104910001A7010BD348004406895FF1F84E100E0E8
:1049200000B006407587FF1F0CB0044004D004405F
:104930007687FF1F10B0044000D00440D495FF1FBD
:104940006995FF1F6495FF1F10B50446094A137847
:1049500013F0FF0FFBD120460121FEF7C7FA2046D6
:104960000021FEF79FFA044B53F83420034B1A60E2
:1049700010BD00BF6895FF1F48670000D895FF1F56
:1049800010B40C4609B140F08000184B1B789842D7
:1049900028D0174A126812F4006F21D003F07F0369
:1049A0000A2B02D01F2B04D006E00022114B1A6004
:1049B00002E00022104B1A60002C0CBF442260223F
:1049C00000F07F030A2B02D01F2B05D008E042F431
:1049D0004072084B1A6003E042F44072064B1A60C2
:1049E000024B18705DF8044B704700BF7687FF1FBD
:1049F0003480044010B0044000D00440124B1B78B7
:104A0000984220D0114A126812F4006F19D0092B75
:104A100002D01A2B04D006E000220D4B1A6002E0EF
:104A200000220C4B1A60092802D01A2805D008E091
:104A300040F21332064B1A6003E040F21332054B8A
:104A40001A60014B187070477587FF1F348004404F
:104A50000CB0044004D0044010B50D4B1B6813F497
:104A6000006F12D021280CD80A4C0B4B53F8303071
:104A700023600121FEF73AFA236800221A70012010
:104A800010BD0020034B186010BD002010BD00BFFA
:104A9000348004406495FF1F486700000D4B1B687D
:104AA00013F4006F13D017280AD140F202320A4BD8
:104AB0001A600A4B5A7B42F001025A730120704778
:104AC000064B5A7B02F0FE025A730020704700200A
:104AD000704700BF3480044008B0044000B0064076
:104AE0002DE9F04107461F4B1B6813F4006F37D0C8
:104AF0001D4B1B680BB101221A701C4B1C78013432
:104B0000282C28BF00241A4D1A4EDFF86C8017E0BD
:104B1000FFF74CFA40280FDC337913F0800F0FD0E9
:104B20002B780133282B28BF002318F80320D2B29A
:104B3000F271DBB22B7003E0FF2801DDFFF750F9C3
:104B40002B78DBB29C42E3D0FFB20B4B1F55012206
:104B50000A4B1A70E4B2054B1C70BC22054BDA708C
:104B6000BDE8F08134800440D895FF1FDC95FF1F1D
:104B7000D595FF1F00B006406C95FF1F6895FF1F7D
:104B80002DE9F84F0746284B1B6813F4006F49D0F6
:104B9000264B1B680BB101221A7007EB010B5F4516
:104BA0003DD2DFF89890224EDFF88C80DFF890A09D
:104BB00099F800400134282C28BF00243578EDB244
:104BC000A54220D1BC2388F80330FFF7EFF9402835
:104BD00011DC98F8043013F0800F10D033780133D3
:104BE000282B28BF00231AF80320D2B288F8072008
:104BF000DBB2337003E0FF2801DDFFF7F1F8337813
:104C0000DBB29D42E1D017F8013B0AF804300122E3
:104C1000084B1A70E4B289F800405F45C8D1BC2245
:104C2000054BDA70BDE8F88F34800440D895FF1F3B
:104C3000D595FF1F6895FF1F00B00640DC95FF1F4C
:104C40006C95FF1F10B5064B1B7813F0FF0F06D0B5
:104C5000034CFFF7C5F8237813F0FF0FF9D110BD0F
:104C60006895FF1F064B1B78DBB2064A1278D2B25A
:104C700093422CBF273202F1FF32D01A704700BF97
:104C8000DC95FF1FD595FF1F054B1878C0B2054B6B
:104C90001B78DBB2984238BF4030C01A704700BF63
:104CA000D495FF1F6995FF1F10B4184B1A78D2B224
:104CB000174B1B78DBB29A4218D001333F2B18D820
:104CC0001449C85CC0B2DCB211490C7012490968C1
:104CD000C9B19A4203D300E00023D31A01E0403265
:104CE000D31A1A2B0FDC00230B700CE04FF0FF30AF
:104CF00009E0084B1878C0B20021054B1970064B2B
:104D000019680029E8D15DF8044B7047D495FF1F5E
:104D10006995FF1F9495FF1F6495FF1F094B1A7833
:104D2000D2B2094B1B78DBB29A4207D00133402B39
:104D300028BF0023054AD05CC0B270474FF0FF3057
:104D4000704700BFD495FF1F6995FF1F9495FF1F03
:104D50000D4B1B6813F4006F14D00C4BDA7802F083
:104D6000CB02DA7040225A74DA7842F03402DA70F8
:104D7000074B1A78D2B2074B1A70074B1B680BB15E
:104D800000221A70704700BF3480044000B0064013
:104D90006995FF1FD495FF1F6495FF1F70B43D4BAD
:104DA0001B7913F0300F33D072B63A4B9B7D03F072
:104DB000FF022BB9374BDA7940225A7462B627E0EA
:104DC00062B6354B1978C9B2344B1C78E4B2314D18
:104DD000334EEB79D8B24B1C402B28BF0023A342A3
:104DE0001CBFF0541946531E13F0FF02F1D1CAB292
:104DF000294B1A702B4B1B6853B1A1422EBFC4EB39
:104E00000101C4F1400409192729C4BF01221A7005
:104E1000204BDA78D2B212F0800F27D01B7913F032
:104E2000800F23D0204B1C78E4B2204B1B78DBB2E0
:104E30009C4210D017491E4D01E0A3420BD0013314
:104E4000282B28BF00230879E85CC0B2C871087D10
:104E5000C0B20728F1D9DBB214490B700D4B1B7996
:104E600013F0800F02D07C210A4BD97012F0400F52
:104E70000ED0084B1B7913F0400F09D000220D4BC8
:104E80001A700D4B1B6803B11A703C22014BDA708B
:104E900070BC704700B00640D495FF1F6995FF1F96
:104EA0009495FF1F6495FF1FDC95FF1FD595FF1F8D
:104EB0006C95FF1F6895FF1FD895FF1F174B1A6849
:104EC00042F480521A600023154A1370154A137079
:104ED000154A1370154A1370154A137040F21331B6
:104EE000144A11604FF4517104321160C0F344311F
:104EF000114A1170C0F34711517000F01F009072F9
:104F0000937013742C23D37040220C4B1A704FF4FF
:104F10000032A3F22D331A60704700BF3480044082
:104F20005096FF1FE595FF1F5896FF1F5196FF1FD4
:104F3000E495FF1F08C0044000C0064031E400E0D3
:104F4000164B9B7803F0EC0300F00302134310F0C0
:104F5000040F18BF43F01003104A937000F00F03C2
:104F6000042B04D11346927942F040029A710B4B04
:104F70005A7902F0EF0210F0100F18BF42F0100241
:104F8000064B5A719B7903F0EF0310F0200F18BF06
:104F900043F01003014A9371704700BF00C0064000
:104FA00010B5144B1B6813F4805F21D0124B1B7893
:104FB00013F0FF0F06D0104CFEF712FF237813F00A
:104FC000FF0FF9D14FF400320C4B1A6000230C4A4A
:104FD000D37040F203120B490A6004310A600A4A96
:104FE00013700A4A13700A4B1B680BB101221A7026
:104FF00010BD00BF34800440E495FF1F84E100E051
:1050000000C0064008C004405096FF1FE595FF1FF2
:10501000E095FF1F10B50446094A137813F0FF0FFF
:10502000FBD120460121FDF761FF20460021FDF75D
:1050300039FF044B53F83420034B1A6010BD00BFF6
:10504000E495FF1F486700005496FF1F10B40C46FC
:1050500009B140F08000104B1B78984219D00F4ADC
:10506000126812F4805F12D003F07F03082B02D184
:1050700000220B4B1A60002C0CBF4422602200F06F
:105080007F03082B03D142F44072054B1A60024B98
:1050900018705DF8044B70477787FF1F3480044019
:1050A0000CC00440704700BF10B50D4B1B6813F4D3
:1050B000805F12D021280CD80A4C0B4B53F83030AB
:1050C00023600121FDF712FF236800221A700120DE
:1050D00010BD0020034B186010BD002010BD00BFA4
:1050E00034800440E095FF1F486700000D4B1B68AB
:1050F00013F4805F13D00E280AD140F202320A4B1B
:105100001A600A4B5A7B42F001025A730120704721
:10511000064B5A7B02F0FE025A73002070470020B3
:10512000704700BF3480044004C0044000C0064003
:105130002DE9F04107461F4B1B6813F4805F37D001
:105140001D4B1B680BB101221A701C4B1C780134DB
:10515000282C28BF00241A4D1A4EDFF86C8017E067
:10516000FEF724FF40280FDC337913F0800F0FD0B7
:105170002B780133282B28BF002318F80320D2B244
:10518000F271DBB22B7003E0FF2801DDFEF728FE91
:105190002B78DBB29C42E3D0FFB20B4B1F550122B0
:1051A0000A4B1A70E4B2054B1C70AC22054BDA7046
:1051B000BDE8F081348004405496FF1F5896FF1FCD
:1051C0005196FF1F00C00640E895FF1FE495FF1FA2
:1051D00038B505460C4629B115F8010BFFF7A8FFB5
:1051E000013CF9D138BD00BF10B5064B1B7813F058
:1051F000FF0F06D0034CFEF7F3FD237813F0FF0FEB
:10520000F9D110BDE495FF1F064B1B78DBB2064AAF
:105210001278D2B293422CBF273202F1FF32D01A59
:10522000704700BF5896FF1F5196FF1F054B187817
:10523000C0B2054B1B78DBB2984238BF4030C01A71
:10524000704700BF5096FF1FE595FF1F10B4184B25
:105250001A78D2B2174B1B78DBB29A4218D00133BE
:105260003F2B18D81449C85CC0B2DCB211490C708D
:1052700012490968C9B19A4203D300E00023D31A46
:1052800001E04032D31A1A2B0FDC00230B700CE024
:105290004FF0FF3009E0084B1878C0B20021054BF1
:1052A0001970064B19680029E8D15DF8044B704766
:1052B0005096FF1FE595FF1F1096FF1FE095FF1FFB
:1052C000094B1A78D2B2094B1B78DBB29A4207D04D
:1052D0000133402B28BF0023054AD05CC0B2704781
:1052E0004FF0FF30704700BF5096FF1FE595FF1F3E
:1052F0001096FF1F054B1A78D2B2054B1A70054B5A
:105300001B680BB100221A70704700BFE595FF1FA4
:105310005096FF1FE095FF1F2F4B1B7913F0200FB6
:1053200023D02D4BDB79D9B22C4B1B780133402B8A
:1053300028BF00232A4A1278D2B29A4204D0294ABE
:10534000D154D9B2254A1170274A116869B1274A48
:105350001278D2B293422EBFC2EB0303C2F14002D5
:105360009B18272BC4BF01230B701B4BDB78DBB2D0
:1053700013F0800F1CD0184A127912F0800F17D04A
:105380001B4A1178C9B2194A1278D2B2914203D19C
:105390006C21114AD1700BE00132282A28BF00226B
:1053A0001449885CC0B20C49C871D2B20F490A7066
:1053B00013F0400F0ED0084B1B7913F0400F09D0AB
:1053C00000220D4B1A700D4B1B6803B11A702C2272
:1053D000014BDA70704700BF00C006405096FF1FB7
:1053E000E595FF1F1096FF1FE095FF1F5196FF1FC9
:1053F0005896FF1FE895FF1FE495FF1F5496FF1F67
:1054000000B585B072B61B4B70221A7041211A4A42
:1054100011700F21013A117080221A701A46137808
:1054200013F0800FFBD0154B186862B6144B9842EE
:105430009CBF00EB8000400001A90A22FEF7D6FDC8
:105440009DF804307BB908E001A9595C31B1918025
:10545000023201330A2BF7D100E0002301335B0055
:10546000084A137003E0074A53800123ECE705B0B4
:105470005DF804FB00000240070002400800024003
:105480007F9698000488FF1F08B503681B68C9B29F
:10549000984708BD08B503681B68C9B2984708BD9E
:1054A00008B503681B68C9B2984708BD08B503680A
:1054B0001B68C9B2984708BD08B54B0803F13760AF
:1054C00000F5D830B0FBF1F0FEF7B2FD08BD00BF2B
:1054D00010B514464B0803F1376000F5D830B0FB27
:1054E000F1F0FEF7A5FD2046FEF70AFE10BD00BF55
:1054F00008B5FEF735FE08BD08B50846FEF76AFE9A
:1055000008BD00BF08B50846FEF7BEFE08BD00BFD7
:1055100008B508461146FEF779FE08BD08B50846ED
:10552000FEF7DEFE003018BF012008BD08B50846B2
:10553000FEF7F8FE003018BF012008BD08B5FEF7E1
:10554000F1FF08BD08B5FFF737F808BD08B5FEF74D
:10555000F9FF08BD08B5FEF7C3FF08BD08B5FFF7A2
:1055600045F808BD08B5FEF7CBFF08BD08B50846ED
:10557000FEF704FF012008BD08B50846FEF7FEFE51
:10558000012008BD10B5144608461146FEF746FF37
:10559000204610BD38B50D46084600F03DFC0446D7
:1055A00028462146FEF73AFF204638BD704700BF27
:1055B000044B00221A714FF47A7199601A73024AEF
:1055C0001A6070475C96FF1FE868000008B5036822
:1055D0001B68C9B2984708BD08B503681B68C9B203
:1055E000984708BD08B503681B68C9B2984708BD4D
:1055F00008B503681B68C9B2984708BD08B54B08D1
:1056000003F1376000F5D830B0FBF1F0FFF7A4F8F4
:1056100008BD00BF10B514464B0803F1376000F514
:10562000D830B0FBF1F0FFF797F82046FFF7FCF811
:1056300010BD00BF08B5FFF727F908BD08B508463B
:10564000FFF782F908BD00BF08B50846FFF7D6F995
:1056500008BD00BF08B508461146FFF791F908BD1F
:1056600008B50846FFF7F8F9003018BF012008BD5B
:1056700008B50846FFF712FA003018BF012008BD30
:1056800008B5FFF701FB08BD08B5FFF747FB08BDEC
:1056900008B5FFF709FB08BD08B5FFF7D3FA08BD49
:1056A00008B5FFF755FB08BD08B5FFF7DBFA08BDE5
:1056B00008B50846FFF714FA012008BD08B50846EA
:1056C000FFF70EFA012008BD10B514460846114632
:1056D000FFF756FA204610BD38B50D46084600F0D3
:1056E0009BFB044628462146FFF74AFA204638BD70
:1056F000704700BF044B00221A714FF47A71996011
:105700001A73024A1A6070476C96FF1F48690000BE
:1057100008B503681B68C9B2984708BD08B5036897
:105720001B68C9B2984708BD08B503681B68C9B2B1
:10573000984708BD08B503681B68C9B2984708BDFB
:1057400008B54B0803F1B76000F55840B0FBF1F025
:10575000FFF7B4FB08BD00BF10B514464B0803F1BA
:10576000B76000F55840B0FBF1F0FFF7A7FB20460B
:10577000FFF7E6FB10BD00BF08B5FFF711FC08BD41
:1057800008B50846FFF746FC08BD00BF08B5084647
:10579000FFF788FC08BD00BF08B508461146FFF7B3
:1057A00055FC08BD08B50846FFF77EFC003018BF61
:1057B000012008BD08B50846FFF798FC003018BF67
:1057C000012008BD08B5FFF731FD08BD08B5FFF79A
:1057D00077FD08BD08B5FFF739FD08BD08B5FFF72F
:1057E00003FD08BD08B5FFF785FD08BD08B5FFF747
:1057F0000BFD08BD08B50846FFF79AFC012008BD5F
:1058000008B50846FFF794FC012008BD10B5144602
:1058100008461146FFF7DCFC204610BD38B50D46A2
:10582000084600F0F9FA044628462146FFF7D0FC66
:10583000204638BD704700BF044B00221A714FF458
:105840007A7199601A73024A1A6070477C96FF1F3A
:10585000A869000070B50F4E0F4D761BB61007D02B
:10586000043D0024013455F8043F9847A642F9D17D
:105870000A4E0B4D761B01F0C7F8B61008D0043D58
:105880000024013455F8043F9847A642F9D170BD71
:1058900070BD00BF146A0000146A0000346A000082
:1058A000146A0000024B0146186800F003B800BFFC
:1058B000488CFF1F2DE9F04F01F10B05162D83B029
:1058C000064627D935F0070527D4A94225D8304602
:1058D00000F08CFAB5F5FC7F26D2C14F4FEAD50C0B
:1058E00007EBCC03DC689C4200F0D2816368E2687D
:1058F000A16823F00303234430465D68CA6045F085
:10590000010591605D6000F073FA0834204603B031
:10591000BDE8F08F1025A942D9D900240C232046D8
:10592000336003B0BDE8F08F5FEA552C00F08A8049
:10593000BCF1040F00F260814FEA951C0CF1380CA9
:105940004FEA4C01A64F07EB8101CC68A14205D17B
:105950000CE0002B7ADAE468A14207D0626822F0FA
:105960000302531B0F2BF4DD0CF1FF3C0CF1010C77
:105970009B4B3C6903F1080E744500F07E81616821
:1059800021F003014A1B0F2A00F36481002AC3F8A7
:1059900014E0C3F810E06ADAB1F5007F80F03A81D4
:1059A000C90803EBC1004FEAA1085A688168A160E9
:1059B0004FF0010909FA08F848EA0202E0605A606B
:1059C0008460CC604FEAAC030120984090425BD8E1
:1059D000024206D12CF0030C400002420CF1040CF0
:1059E000FAD007EBCC084446E146E3689C4207D175
:1059F00045E1002A80F25681DB689C4200F03F813D
:105A0000596821F003014A1B0F2AF2DD1C46D3F826
:105A10000CC054F8088F591945F0010942F00105EE
:105A2000C3F804903046C8F80CC0CCF808807961FF
:105A30003961C1F80CE0C1F808E04D608A5000F00F
:105A4000D7F963E77E214FF03F0C7BE72244E36800
:105A50005068A16840F00105CB6030469960556000
:105A600000F0C6F90834204603B0BDE8F08F2144A9
:105A700030464B6843F001034B6000F0B9F908343D
:105A8000204603B0BDE8F08FBC68636823F00309CB
:105A9000A94504D3C5EB09030F2B00F39180514BAB
:105AA000514A19681368013305EB010A04EB090B2D
:105AB00000F061810AF5805A0AF10F0A2AF47F6A20
:105AC0002AF00F0A30465146019200F093F9B0F1E6
:105AD000FF3F8046019A00F00081834500F2FA8082
